:020000040800F2
:1000000000000120450C0008250B00082B0B000800
:10001000310B0008370B00083D0B00080000000002
:10002000000000000000000000000000430B00087A
:10003000510B0008000000005F0B00086D0B00086A
:10004000950C0008950C0008950C0008950C00080C
:10005000950C0008950C0008950C0008950C0008FC
:10006000950C0008950C0008950C0008950C0008EC
:10007000950C0008950C0008950C0008950C0008DC
:10008000950C0008950C0008950C00080000000075
:10009000000000000000000000000000950C0008B7
:1000A000950C0008950C0008950C0008950C0008AC
:1000B000950C0008950C0008950C0008790B0008B9
:1000C0008D0B0008950C0008950C0008950C000895
:1000D000950C0008A10B0008950C0008000000001A
:1000E000950C0008950C0008950C00080000000015
:1000F000000000000000000000000000950C000857
:1001000000000000950C0008950C0008950C0008F4
:1001100000000000000000000000000000000000DF
:10012000950C0008950C0008950C0008950C00082B
:10013000950C000800000000000000000000000016
:10014000000000000000000000000000950C000806
:10015000950C0008950C0008950C0008950C0008FB
:10016000950C0008950C000800000000000000003D
:10017000000000000000000000000000000000007F
:1001800000000000950C00080000000000000000C6
:04019000950C0008C2
:1001A00010B5054C237833B9044B13B10448AFF3B1
:1001B00000800123237010BD9C000020000000007F
:1001C000F861000808B5034B1BB103490348AFF3BE
:1001D000008008BD00000000A0000020F8610008B9
:1001E00001F0FF01102A2BDB10F0070F08D010F8E8
:1001F000013B013A8B422DD010F0070F42B3F6D1EC
:10020000F0B441EA012141EA014122F007047FF004
:1002100000070023F0E80256083C85EA010586EA5B
:10022000010685FA47F5A3FA87F586FA47F6A5FA97
:1002300087F68EB9EED1F0BC01F0FF0102F00702A3
:1002400032B110F8013B013A83EA010313B1F8D14E
:100250000020704701387047002D06BF354603382F
:10026000073815F0010F07D1013015F4807F02BF68
:10027000013015F4C03F0130F0BC0138704700BFB9
:1002800053B94AB9002908BF00281CBF4FF0FF31FD
:100290004FF0FF3000F074B9ADF1080C6DE904CEF9
:1002A00000F006F8DDF804E0DDE9022304B0704751
:1002B0002DE9F047089D04468E46002B4DD18A4219
:1002C000944669D9B2FA82F252B101FA02F3C2F14C
:1002D000200120FA01F10CFA02FC41EA030E9440DD
:1002E0004FEA1C48210CBEFBF8F61FFA8CF708FBFE
:1002F00016E341EA034306FB07F199420AD91CEBD6
:10030000030306F1FF3080F01F81994240F21C8107
:10031000023E63445B1AA4B2B3FBF8F008FB10334F
:1003200044EA034400FB07F7A7420AD91CEB040484
:1003300000F1FF3380F00A81A74240F20781644454
:10034000023840EA0640E41B00261DB1D4400023D9
:10035000C5E900433146BDE8F0878B4209D9002D3D
:1003600000F0EF800026C5E9000130463146BDE8C7
:10037000F087B3FA83F6002E4AD18B4202D3824231
:1003800000F2F980841A61EB030301209E46002DE0
:10039000E0D0C5E9004EDDE702B9FFDEB2FA82F235
:1003A000002A40F09280A1EB0C014FEA1C471FFA93
:1003B0008CFE0126200CB1FBF7F307FB131140EA7A
:1003C00001410EFB03F0884208D91CEB010103F147
:1003D000FF3802D2884200F2CB804346091AA4B209
:1003E000B1FBF7F007FB101144EA01440EFB00FEDD
:1003F000A64508D91CEB040400F1FF3102D2A64542
:1004000000F2BB800846A4EB0E0440EA03409CE7E0
:10041000C6F12007B34022FA07FC4CEA030C20FA8D
:1004200007F401FA06F31C43F9404FEA1C4900FAAD
:1004300006F3B1FBF9F8200C1FFA8CFE09FB18112A
:1004400040EA014108FB0EF0884202FA06F20BD99D
:100450001CEB010108F1FF3A80F08880884240F2ED
:100460008580A8F102086144091AA4B2B1FBF9F031
:1004700009FB101144EA014100FB0EFE8E4508D92C
:100480001CEB010100F1FF346CD28E456AD90238B1
:10049000614440EA0840A0FB0294A1EB0E01A14296
:1004A000C846A64656D353D05DB1B3EB080261EB04
:1004B0000E0101FA07F722FA06F3F1401F43C5E9DE
:1004C000007100263146BDE8F087C2F12003D84014
:1004D0000CFA02FC21FA03F3914001434FEA1C4756
:1004E0001FFA8CFEB3FBF7F007FB10360B0C43EA48
:1004F000064300FB0EF69E4204FA02F408D91CEBF8
:10050000030300F1FF382FD29E422DD902386344F5
:100510009B1B89B2B3FBF7F607FB163341EA034195
:1005200006FB0EF38B4208D91CEB010106F1FF38E4
:1005300016D28B4214D9023E6144C91A46EA0046DB
:1005400038E72E46284605E70646E3E61846F8E66D
:100550004B45A9D2B9EB020864EB0C0E0138A3E7B6
:100560004646EAE7204694E74046D1E7D0467BE797
:10057000023B614432E7304609E76444023842E70F
:10058000704700BFB0B596B004AF00F085FB00F037
:1005900013F900F0C9F900F06FF900F09BF900239E
:1005A00087F847304FF47A7000F0E8FB4FF47A7325
:1005B0001A227349734804F0A8F9012387F84730D9
:1005C0003DE097F847309BB25B0099B205230322C8
:1005D0006D4801F091FB034687F8403097F84030B2
:1005E000002B07D04FF47A7304226849654804F061
:1005F0008CF911E097F84030002B0DD197F8473077
:100600001A466349634805F089F94FF47A73192251
:1006100060495C4804F079F997F8473003F0070324
:10062000DBB2002B06D14FF47A7303225A495548A6
:1006300004F06BF997F84730013387F8473097F9A2
:100640004730002BBDDA4FF47A730B2253494D48E3
:1006500004F05BF9524A07F1340307CA83E8070044
:100660006823A7F844304FF48073A7F842304FF462
:100670007A7310224B49434804F047F9B7F84220F7
:10068000B7F844104FF47A7302930C23019307F1E7
:100690003403009310233C4801F00EF8034687F81A
:1006A000413097F8413019464FF47A7301223548AA
:1006B00004F02BF94FF47A730A223B49314804F0D5
:1006C00024F9B7F84220B7F844104FF47A73029334
:1006D0000C23019307F12803009310232A4801F00B
:1006E000E5F8034687F8413097F8413019464FF452
:1006F0007A730122234804F008F94FF47A7309222F
:100700002A49204804F001F907F134014FF47A73C3
:100710000C221C4804F0F9F807F128014FF47A7311
:100720000C22184804F0F1F807F1340107F128030E
:100730000C22184605F0DAF80346002B11D11C4BA9
:1007400007F118040FCB07C4238002341B0C23705D
:1007500007F118014FF47A730E220A4804F0D5F815
:100760000DE0144B3C1D1D460FCD0FC42B682370AC
:10077000391D4FF47A731022024804F0C6F8FEE7E0
:10078000040000200C010020B80000200000002020
:1007900010620008500100201862000820000020AC
:1007A000446200081C6200082C62000838620008DD
:1007B000506200086062000880B594B000AF07F195
:1007C000200330220021184605F0A0F807F10C03A1
:1007D00000221A605A609A60DA601A610023BB60D6
:1007E000234B1B6C224A43F080531364204B1B6C39
:1007F00003F08053BB60BB6800237B601D4B1B680C
:1008000023F440431B4A43F400431360194B1B6815
:1008100003F440437B607B6802233B620123FB625D
:1008200010233B630023BB6307F12003184603F04A
:10083000C7FB0346002B01D000F09EF80F23FB609E
:1008400000233B6100237B610023BB610023FB612C
:1008500007F10C030021184603F02AFE0346002B83
:1008600001D000F089F800BF5037BD4680BD00BF01
:10087000003802400070004080B500AF124B134AB0
:100880001A60114B124A5A600F4B00229A600E4BAD
:100890000022DA600C4B4FF480421A610A4B0022AE
:1008A0005A61094B00229A61074B0022DA61064B1C
:1008B00000221A62044800F0BBFD0346002B01D061
:1008C00000F05AF800BF80BDB8000020005400407E
:1008D000A086010080B500AF114B124A1A60104B80
:1008E0004FF416525A600E4B00229A600C4B0022B5
:1008F000DA600B4B00221A61094B0C225A61084B3B
:1009000000229A61064B0022DA61054803F0B0FF2D
:100910000346002B01D000F02FF800BF80BD00BFC0
:100920000C0100200010014080B483B000AF002310
:100930007B60104B1B6B0F4A43F0010313630D4B9D
:100940001B6B03F001037B607B6800233B60094B5A
:100950001B6B084A43F002031363064B1B6B03F047
:1009600002033B603B6800BF0C37BD465DF8047B6B
:10097000704700BF0038024080B400AF72B600BFBD
:10098000FEE7000080B483B000AF00237B60104B13
:100990005B6C0F4A43F4804353640D4B5B6C03F470
:1009A00080437B607B6800233B60094B1B6C084ADB
:1009B00043F080531364064B1B6C03F080533B6081
:1009C0003B6800BF0C37BD465DF8047B704700BF35
:1009D0000038024080B58AB000AF786007F1140398
:1009E00000221A605A609A60DA601A617B681B689C
:1009F000214A93423BD100233B61204B1B6B1F4A92
:100A000043F0020313631D4B1B6B03F002033B61B6
:100A10003B69C0237B611223BB610023FB6103237D
:100A20003B6204237B6207F114031946144800F06B
:100A30007BFB0023FB60114B1B6C104A43F400133B
:100A400013640E4B1B6C03F40013FB60FB68002265
:100A500000211F2000F091FA1F2000F0AAFA0022C6
:100A60000021202000F089FA202000F0A2FA00BF27
:100A70002837BD4680BD00BF00540040003802400A
:100A80000004024080B58AB000AF786007F114031B
:100A900000221A605A609A60DA601A617B681B68EB
:100AA0001D4A934234D100233B611C4B5B6C1B4AB3
:100AB00043F010035364194B5B6C03F010033B616C
:100AC0003B690023FB60154B1B6B144A43F0010389
:100AD0001363124B1B6B03F00103FB60FB684FF4C5
:100AE000C0637B610223BB610023FB6103233B6284
:100AF00007237B6207F114031946094800F014FB31
:100B000000220021252000F038FA252000F051FABB
:100B100000BF2837BD4680BD0010014000380240AC
:100B20000000024080B400AFFEE780B400AFFEE7F3
:100B300080B400AFFEE780B400AFFEE780B400AF42
:100B4000FEE780B400AF00BFBD465DF8047B704790
:100B500080B400AF00BFBD465DF8047B704780B431
:100B600000AF00BFBD465DF8047B704780B500AFA5
:100B700000F0E4F800BF80BD80B500AF024801F08E
:100B8000E9F900BF80BD00BFB800002080B500AF0C
:100B9000024801F050FB00BF80BD00BFB80000203C
:100BA00080B500AF024803F043FF00BF80BD00BF27
:100BB0000C01002080B586B000AF7860144A154B58
:100BC000D31A7B617B693B61134B1B68002B02D1FD
:100BD000114B124A1A60104B1A687B6813443A6929
:100BE0009A4207D204F058FE03460C221A604FF0D6
:100BF000FF3309E0084B1B68FB60074B1A687B68F2
:100C00001344054A1360FB6818461837BD4680BD7B
:100C100000000120000400006C0100208801002079
:100C200080B400AF064BD3F88830054A43F4700314
:100C3000C2F8883000BFBD465DF8047B704700BF36
:100C400000ED00E0DFF834D00D480E490E4A0023D5
:100C500002E0D458C4500433C4188C42F9D30B4A70
:100C60000B4C002301E013600432A242FBD3FFF7D8
:100C7000D7FF04F017FEFFF785FC70470000012046
:100C8000000000209C000020D06200089C00002092
:100C900084010020FEE7000080B500AF0E4B1B680A
:100CA0000D4A43F4007313600B4B1B680A4A43F46C
:100CB00080631360084B1B68074A43F4807313601A
:100CC000032000F04FF90F2000F008F8FFF75AFE5C
:100CD0000023184680BD00BF003C024080B582B0B2
:100CE00000AF7860124B1A68124B1B7819464FF40C
:100CF0007A73B3FBF1F3B2FBF3F3184600F067F934
:100D00000346002B01D001230EE07B680F2B0AD88D
:100D1000002279684FF0FF3000F02FF9064A7B6817
:100D20001360002300E0012318460837BD4680BD4C
:100D30002C000020340000203000002080B400AFE0
:100D4000064B1B781A46064B1B681344044A136073
:100D500000BFBD465DF8047B704700BF3400002033
:100D60007001002080B400AF034B1B681846BD46DD
:100D70005DF8047B704700BF7001002080B584B02F
:100D800000AF7860FFF7EEFFB8607B68FB60FB6840
:100D9000B3F1FF3F05D00A4B1B781A46FB6813449A
:100DA000FB6000BFFFF7DEFF0246BB68D31AFA689C
:100DB0009A42F7D800BF00BF1037BD4680BD00BFC4
:100DC0003400002080B485B000AF78607B6803F009
:100DD0000703FB600C4BDB68BB60BA684FF6FF0390
:100DE0001340BB60FB681A02BB68134343F0BF6348
:100DF00043F40033BB60044ABB68D36000BF1437C0
:100E0000BD465DF8047B704700ED00E080B400AFA4
:100E1000044BDB681B0A03F007031846BD465DF868
:100E2000047B704700ED00E080B483B000AF034660
:100E3000FB7197F90730002B0BDBFB7903F01F02E6
:100E4000074997F907305B09012000FA02F241F8DF
:100E5000232000BF0C37BD465DF8047B704700BF00
:100E600000E100E080B483B000AF03463960FB715D
:100E700097F90730002B0ADB3B68DAB20C4997F987
:100E800007301201D2B20B4483F800230AE03B681A
:100E9000DAB20849FB7903F00F03043B1201D2B226
:100EA0000B441A7600BF0C37BD465DF8047B7047D3
:100EB00000E100E000ED00E080B489B000AFF86030
:100EC000B9607A60FB6803F00703FB61FB69C3F15B
:100ED0000703042B28BF0423BB61FB690433062BE3
:100EE00002D9FB69033B00E000237B614FF0FF3236
:100EF000BB6902FA03F3DA43BB681A407B699A4084
:100F00004FF0FF317B6901FA03F3D9437B680B4053
:100F1000134318462437BD465DF8047B7047000034
:100F200080B582B000AF78607B68013BB3F1807F11
:100F300001D301230FE00A4A7B68013B53600F2174
:100F40004FF0FF30FFF78EFF054B00229A60044BF5
:100F500007221A60002318460837BD4680BD00BF2F
:100F600010E000E080B582B000AF78607868FFF7ED
:100F700029FF00BF0837BD4680BD80B586B000AFF1
:100F80000346B9607A60FB7300237B61FFF73EFF85
:100F900078617A68B9687869FFF78EFF024697F939
:100FA0000F3011461846FFF75DFF00BF1837BD46EA
:100FB00080BD80B582B000AF0346FB7197F9073062
:100FC0001846FFF731FF00BF0837BD4680BD80B52A
:100FD00082B000AF78607868FFF7A2FF034618463A
:100FE0000837BD4680BD80B584B000AF78607B68AF
:100FF0009B6DFB60FFF7B6FEB8607B6893F83530F9
:10100000DBB2022B08D07B6880225A657B68002205
:1010100083F83420012352E07B681B681A687B68E0
:101020001B6822F016021A607B681B685A697B688D
:101030001B6822F080025A617B681B6C002B03D175
:101040007B689B6C002B07D07B681B681A687B68E9
:101050001B6822F008021A607B681B681A687B68AC
:101060001B6822F001021A6013E0FFF77BFE0246C4
:10107000BB68D31A052B0CD97B6820225A657B6884
:10108000032283F835207B68002283F83420032371
:1010900015E07B681B681B6803F00103002BE4D19B
:1010A0007B68DB6D3F229A40FB689A607B68012277
:1010B00083F835207B68002283F83420002318460B
:1010C0001037BD4680BD80B483B000AF78607B68C8
:1010D00093F83530DBB2022B04D07B6880225A654E
:1010E00001230CE07B68052283F835207B681B68B0
:1010F0001A687B681B6822F001021A6000231846F8
:101100000C37BD465DF8047B704780B483B000AFF8
:1011100078607B6893F83530DBB218460C37BD46F3
:101120005DF8047B7047000080B489B000AF786040
:10113000396000237B6100233B610023BB610023F6
:10114000FB6159E10122FB6902FA03F37B613B6811
:101150001B687A6913403B613A697B699A4240F0A7
:1011600048813B685B6803F00303012B05D03B68B3
:101170005B6803F00303022B30D17B689B68BB6183
:10118000FB695B00032202FA03F3DB43BA691340F5
:10119000BB613B68DA68FB695B0002FA03F3BA697A
:1011A0001343BB617B68BA699A607B685B68BB610B
:1011B0000122FB6902FA03F3DB43BA691340BB6106
:1011C0003B685B681B0903F00102FB6902FA03F349
:1011D000BA691343BB617B68BA695A603B685B6854
:1011E00003F00303032B17D07B68DB68BB61FB694B
:1011F0005B00032202FA03F3DB43BA691340BB61CD
:101200003B689A68FB695B0002FA03F3BA6913430F
:10121000BB617B68BA69DA603B685B6803F0030313
:10122000022B23D1FB69DA087B68083253F822309D
:10123000BB61FB6903F007039B000F2202FA03F373
:10124000DB43BA691340BB613B681A69FB6903F071
:1012500007039B0002FA03F3BA691343BB61FB69FE
:10126000DA087B680832B96943F822107B681B688A
:10127000BB61FB695B00032202FA03F3DB43BA693B
:101280001340BB613B685B6803F00302FB695B00D2
:1012900002FA03F3BA691343BB617B68BA691A6047
:1012A0003B685B6803F44033002B00F0A28000230E
:1012B000FB60574B5B6C564A43F480435364544B7A
:1012C0005B6C03F48043FB60FB68524AFB699B083C
:1012D000023352F82330BB61FB6903F003039B0028
:1012E0000F2202FA03F3DB43BA691340BB617B6848
:1012F000494A934219D07B68484A934213D07B688D
:10130000474A93420DD07B68464A934207D07B6898
:10131000454A934201D1042308E0072306E0032352
:1013200004E0022302E0012300E00023FA6902F056
:10133000030292009340BA691343BB613549FB69CC
:101340009B080233BA6941F82320384B9B68BB6184
:101350003B69DB43BA691340BB613B685B6803F4DC
:101360008013002B03D0BA693B691343BB612F4A3A
:10137000BB6993602D4BDB68BB613B69DB43BA699A
:101380001340BB613B685B6803F40013002B03D080
:10139000BA693B691343BB61244ABB69D360234BE1
:1013A0005B68BB613B69DB43BA691340BB613B6867
:1013B0005B6803F40033002B03D0BA693B69134325
:1013C000BB611A4ABB695360184B1B68BB613B6920
:1013D000DB43BA691340BB613B685B6803F480334D
:1013E000002B03D0BA693B691343BB610F4ABB6949
:1013F0001360FB690133FB61FB690F2B7FF6A2AE23
:1014000000BF00BF2437BD465DF8047B704700BFB6
:101410000038024000380140000002400004024051
:1014200000080240000C024000100240003C014055
:1014300080B584B000AF78607B68002B01D10123B8
:101440002BE17B6893F83D30DBB2002B06D17B6843
:10145000002283F83C207868FFF7BCFA7B682422DE
:1014600083F83D207B681B681A687B681B6822F044
:1014700001021A607B681B681A687B681B6842F46B
:1014800000421A607B681B681A687B681B6822F43C
:1014900000421A6003F0C4F9F8607B685B68814A17
:1014A000934207D8FB68804A934294BF01230023EC
:1014B000DBB206E0FB687D4A934294BF0123002320
:1014C000DBB2002B01D00123E7E0FB68784AA2FBE6
:1014D00003239B0CBB607B681B685B6823F03F01A8
:1014E0007B681B68BA680A435A607B681B681B6A82
:1014F00023F03F017B685B686A4A934202D8BB686D
:10150000013309E0BB684FF4967202FB03F3694AAA
:10151000A2FB03239B0901337A6812680B43136211
:101520007B681B68DB6923F44F4222F0FF027B6873
:101530005B685C498B4219D8FB68591E7B685B6805
:101540005B00B1FBF3F3591C40F6FC730B40002B1E
:101550000AD0FB68591E7B685B685B00B1FBF3F344
:101560000133C3F30B0351E004234FE07B689B6816
:10157000002B11D1FB68581E7B6859680B465B0035
:101580000B44B0FBF3F30133C3F30B03002B0CBF8D
:1015900001230023DBB212E0FB68581E7B68596808
:1015A0000B469B000B4499000B44B0FBF3F3013353
:1015B000C3F30B03002B0CBF01230023DBB2002B72
:1015C00001D0012322E07B689B68002B0ED1FB68D1
:1015D000581E7B6859680B465B000B44B0FBF3F365
:1015E0000133C3F30B0343F400430FE0FB68581EC1
:1015F0007B6859680B469B000B4499000B44B0FB79
:10160000F3F30133C3F30B0343F4404379680968F0
:101610001343CB617B681B681B6823F0C0017B68A8
:10162000DA697B681B6A1A437B681B680A431A6085
:101630007B681B689B6823F4034323F0FF037A68ED
:1016400011697A68D26811437A6812680B43936013
:101650007B681B68DB6823F0FF017B685A697B6845
:101660009B691A437B681B680A43DA607B681B68C6
:101670001A687B681B6842F001021A607B680022CE
:101680001A647B68202283F83D207B6800221A635D
:101690007B68002283F83E20002318461037BD46A1
:1016A00080BD00BFA08601007F841E00FF083D00B2
:1016B00083DE1B43D34D621080B588B002AFF86063
:1016C000084611461A4603467B810B463B8113466A
:1016D000FB80FFF747FB7861FB6893F83D30DBB296
:1016E000202B40F0D9807B690093192301226D499A
:1016F000F86802F03BFA0346002B01D00223CCE04D
:10170000FB6893F83C30012B01D10223C5E0FB6854
:10171000012283F83C20FB681B681B6803F001036F
:10172000012B07D0FB681B681A68FB681B6842F036
:1017300001021A60FB681B681A68FB681B6822F4C8
:1017400000621A60FB68212283F83D20FB6840227A
:1017500083F83E20FB6800221A64FB683A6A5A62EA
:10176000FB68BA8C5A85FB685B8D9AB2FB681A8558
:10177000FB684D4ADA62F8883A8979897B69019376
:10178000BB6A00930346F86801F0CAFF0346002BCA
:1017900052D0012381E07A69B96AF86802F0BCFA94
:1017A0000346002B0DD0FB681B6C042B07D1FB6894
:1017B0001B681A68FB681B6842F400721A600123F8
:1017C0006BE0FB685B6A1A78FB681B681A61FB6850
:1017D0005B6A5A1CFB685A62FB681B8D013B9AB21C
:1017E000FB681A85FB685B8D9BB2013B9AB2FB6874
:1017F0005A85FB681B685B6903F00403042B1BD14B
:10180000FB681B8D002B17D0FB685B6A1A78FB689E
:101810001B681A61FB685B6A5A1CFB685A62FB68AA
:101820001B8D013B9AB2FB681A85FB685B8D9BB2EE
:10183000013B9AB2FB685A85FB681B8D002BAAD12D
:101840007A69B96AF86802F0A8FA0346002B0DD04D
:10185000FB681B6C042B07D1FB681B681A68FB68CC
:101860001B6842F400721A60012316E0FB681B68D3
:101870001A68FB681B6842F400721A60FB68202239
:1018800083F83D20FB68002283F83E20FB6800229D
:1018900083F83C20002300E0022318461837BD4699
:1018A00080BD00BF020010000000FFFF80B58CB0BB
:1018B00002AFF860084611461A4603467B810B4684
:1018C0003B811346FB80FFF74DFA7862FB6893F883
:1018D0003D30DBB2202B40F008827B6A0093192355
:1018E00001227B49F86802F041F90346002B01D040
:1018F0000223FBE1FB6893F83C30012B01D102236A
:10190000F4E1FB68012283F83C20FB681B681B683C
:1019100003F00103012B07D0FB681B681A68FB6802
:101920001B6842F001021A60FB681B681A68FB68BA
:101930001B6822F400621A60FB68222283F83D20B3
:10194000FB68402283F83E20FB6800221A64FB6893
:101950003A6B5A62FB68BA8E5A85FB685B8D9AB205
:10196000FB681A85FB685B4ADA62F8883A897989EC
:101970007B6A0193BB6B00930346F86801F066FF36
:101980000346002B01D00123B0E1FB681B8D002B27
:1019900013D100233B62FB681B685B693B62FB68F9
:1019A0001B689B693B623B6AFB681B681A68FB68A3
:1019B0001B6842F400721A6084E1FB681B8D012BE6
:1019C0001BD1FB681B681A68FB681B6822F48062E5
:1019D0001A600023FB61FB681B685B69FB61FB68A5
:1019E0001B689B69FB61FB69FB681B681A68FB68E5
:1019F0001B6842F400721A6064E1FB681B8D022BC5
:101A00001BD1FB681B681A68FB681B6822F48062A4
:101A10001A60FB681B681A68FB681B6842F4006266
:101A20001A600023BB61FB681B685B69BB61FB68D4
:101A30001B689B69BB61BB6944E100237B61FB6858
:101A40001B685B697B61FB681B689B697B617B69C9
:101A500038E1FB681B8D032B00F2F180FB681B8DC6
:101A6000012B23D17A6AB96BF86802F009FA0346B0
:101A7000002B01D0012339E1FB681B681A69FB6860
:101A80005B6AD2B21A70FB685B6A5A1CFB685A62C6
:101A9000FB681B8D013B9AB2FB681A85FB685B8D66
:101AA0009BB2013B9AB2FB685A850BE1FB681B8D28
:101AB000022B4ED17B6A0093BB6B00220649F8686B
:101AC00002F054F80346002B08D001230EE100BFBA
:101AD000020010000000FFFF04000100FB681B680B
:101AE0001A68FB681B6842F400721A60FB681B6886
:101AF0001A69FB685B6AD2B21A70FB685B6A5A1C8F
:101B0000FB685A62FB681B8D013B9AB2FB681A8521
:101B1000FB685B8D9BB2013B9AB2FB685A85FB6800
:101B20001B681A69FB685B6AD2B21A70FB685B6A51
:101B30005A1CFB685A62FB681B8D013B9AB2FB681A
:101B40001A85FB685B8D9BB2013B9AB2FB685A8594
:101B5000B8E07B6A0093BB6B00226649F86802F02C
:101B600005F80346002B01D00123BFE0FB681B688A
:101B70001A68FB681B6822F480621A60FB681B68A5
:101B80001A69FB685B6AD2B21A70FB685B6A5A1CFE
:101B9000FB685A62FB681B8D013B9AB2FB681A8591
:101BA000FB685B8D9BB2013B9AB2FB685A857B6AEE
:101BB0000093BB6B00224F49F86801F0D7FF034642
:101BC000002B01D0012391E0FB681B681A68FB68B9
:101BD0001B6842F400721A60FB681B681A69FB6894
:101BE0005B6AD2B21A70FB685B6A5A1CFB685A6265
:101BF000FB681B8D013B9AB2FB681A85FB685B8D05
:101C00009BB2013B9AB2FB685A85FB681B681A6954
:101C1000FB685B6AD2B21A70FB685B6A5A1CFB688D
:101C20005A62FB681B8D013B9AB2FB681A85FB6800
:101C30005B8D9BB2013B9AB2FB685A8542E07A6A9F
:101C4000B96BF86802F01CF90346002B01D00123A0
:101C50004CE0FB681B681A69FB685B6AD2B21A70B9
:101C6000FB685B6A5A1CFB685A62FB681B8D013B70
:101C70009AB2FB681A85FB685B8D9BB2013B9AB2F6
:101C8000FB685A85FB681B685B6903F00403042B3F
:101C900018D1FB681B681A69FB685B6AD2B21A70BC
:101CA000FB685B6A5A1CFB685A62FB681B8D013B30
:101CB0009AB2FB681A85FB685B8D9BB2013B9AB2B6
:101CC000FB685A85FB681B8D002B7FF4C2AEFB6856
:101CD000202283F83D20FB68002283F83E20FB6829
:101CE000002283F83C20002300E002231846283716
:101CF000BD4680BD0400010080B58AB002AFF86027
:101D00007A603B600B467B81FFF72CF8F86100237B
:101D1000BB61FB6893F83D30DBB2202B40F01181B2
:101D2000FB690093192301228849F86801F01EFF1E
:101D30000346002B01D0022304E1FB6893F83C30FA
:101D4000012B01D10223FDE0FB68012283F83C2036
:101D5000FB681B681B6803F00103012B07D0FB68BD
:101D60001B681A68FB681B6842F001021A60FB6876
:101D70001B681A68FB681B6822F400621A60FB6823
:101D8000242283F83D20FB6800221A64FB68704A15
:101D9000DA62FB681B681A68FB681B6842F4807291
:101DA0001A60FB6900933B6800224FF00111F8684C
:101DB00001F0DCFE0346002B0DD0FB681B681B689E
:101DC00003F48073B3F5807F03D1FB684FF4007296
:101DD0001A640323B6E07B89DBB21A46FB681B68F2
:101DE00002F0FE021A61FEF7BDFFF861FB681B6896
:101DF0005B6903F00203022B0CBF01230023DBB25B
:101E0000FB75FB681B685B6903F48063B3F5806F47
:101E10000CBF01230023DBB2BB7525E0FEF7A2FF58
:101E20000246FB69D31A3A689A4202D33B68002BF8
:101E300003D1FB68A02283F83D20FB681B685B6927
:101E400003F00203022B0CBF01230023DBB2FB755E
:101E5000FB681B685B6903F48063B3F5806F0CBF9C
:101E600001230023DBB2BB75FB6893F83D30DBB286
:101E7000A02B05D0FB7D002B02D1BB7D002BCDD04C
:101E8000FB68202283F83D20FB681B685B6903F038
:101E90000203022B29D1FB681B681A68FB681B68C8
:101EA00042F400721A6000233B61FB681B685B69A7
:101EB0003B61FB681B689B693B613B69FB69009365
:101EC000192301222149F86801F050FE0346002B36
:101ED00001D0012336E0FB68202283F83D20FB6817
:101EE000002283F83C2000232CE0FB681B681A6862
:101EF000FB681B6842F400721A60FB681B686FF491
:101F000080625A61FB690093192301220F49F86826
:101F100001F02CFE0346002B01D0012312E0BB6927
:101F20000133BB61BA697B689A42FFF432AFFB6848
:101F3000202283F83D20FB68002283F83C20012307
:101F400000E0022318462037BD4680BD0200100085
:101F50000000FFFF80B588B000AF78600023BB6150
:101F60007B681B685B687B617B68DB6A3B617B68C5
:101F700093F83E30FB737B6893F83D30BB73FB7B7B
:101F8000102B03D0FB7B402B40F0C1807B681B688B
:101F90009B69BB617B681B685B69FB61FB6903F044
:101FA0000103002B0DD13B69B3F52A0F03D03B6928
:101FB000B3F12A4F01D1012300E00023012B00F0EF
:101FC0003281FB6903F00103002B0CD07B695B0AB3
:101FD00003F00103002B06D0786801F0D6FF786883
:101FE00000F083FD92E0FB69DB0803F00103002BA6
:101FF00009D07B695B0A03F00103002B03D07868EA
:1020000000F0F9FD82E0FB695B0803F00103002B9F
:1020100009D07B695B0A03F00103002B03D07868C9
:1020200000F013FE72E0BB699B0803F00103002B74
:102030003BD07B681B685B6803F40063B3F5006FFB
:1020400000F0F380FB69DB0903F00103002B0FD0E4
:102050007B699B0A03F00103002B09D0FB699B08F5
:1020600003F00103002B03D1786800F0F3F94DE091
:10207000FB699B0803F00103002B00F0D6807B690D
:102080005B0A03F00103002B00F0CF80BB7B212B08
:1020900003D1786800F07AFAC7E0FB7B402B40F070
:1020A000C480786800F0E8FABFE07B681B685B6872
:1020B00003F40063B3F5006F00F0B780FB699B0980
:1020C00003F00103002B0FD07B699B0A03F001038F
:1020D000002B09D0FB699B0803F00103002B03D1FF
:1020E000786800F05DFB11E0FB699B0803F00103D9
:1020F000002B00F09A807B695B0A03F00103002B40
:1021000000F09380786800F006FC8EE08DE07B683C
:102110001B6C002B04D07B681B685B69FB6107E0CC
:102120007B681B689B69BB617B681B685B69FB61A3
:10213000FB695B0803F00103002B12D07B695B0A8B
:1021400003F00103002B0CD07B681B6C002B03D029
:102150007B681B689B69BB61B969786800F0C4FF44
:1021600066E0FB691B0903F00103002B09D07B69C2
:102170005B0A03F00103002B03D0786800F0FEFF38
:1021800056E0BB7B212B02D0BB7B292B25D1FB69E1
:10219000DB0903F00103002B0FD07B699B0A03F0DE
:1021A0000103002B09D0FB699B0803F00103002BFE
:1021B00003D1786800F0DAFE39E0FB699B0803F090
:1021C0000103002B33D07B695B0A03F00103002B72
:1021D0002DD0786800F007FF29E0FB699B0903F028
:1021E0000103002B0FD07B699B0A03F00103002B36
:1021F00009D0FB699B0803F00103002B03D1786829
:1022000000F012FF14E0FB699B0803F00103002BB0
:102210000ED07B695B0A03F00103002B08D07868BD
:1022200000F040FF04E000BF02E000BF00E000BF9C
:102230002037BD4680BD80B58AB000AF78607B682E
:102240001B685B693B627B681B685B68FB61002302
:102250007B627B6893F83E30FB763B6A1B0A03F097
:102260000103002B0ED0FB691B0A03F00103002BB6
:1022700008D07B6A43F001037B627B681B686FF4C4
:1022800080725A613B6A5B0A03F00103002B0ED097
:10229000FB691B0A03F00103002B08D07B6A43F0A3
:1022A00002037B627B681B686FF400725A613B6AB1
:1022B0009B0A03F00103002B3FD0FB691B0A03F0CC
:1022C0000103002B39D0FB7EBB767B685B8D9BB214
:1022D0007B617B6893F83D30FB747B681B6BFB6014
:1022E000BB7E202B12D17B69002B0FD1FB7C212BD5
:1022F00008D0FB7C292B05D0FB7C282B06D1FB6862
:10230000212B03D1786801F069F816E07B681B681F
:102310006FF480625A617B6A43F004037B62FB7E48
:10232000102B02D0FB7E402B07D17B681B681A68FC
:102330007B681B6842F400721A603B6ADB0A03F098
:102340000103002B0ED0FB691B0A03F00103002BD5
:1023500008D07B6A43F008037B627B681B686FF4DC
:1023600000625A617B6A002B08D07B681A6C7B6A1A
:102370001A437B681A64786801F0A0F800BF283718
:10238000BD4680BD80B483B000AF786000BF0C371D
:10239000BD465DF8047B704780B483B000AF7860C1
:1023A00000BF0C37BD465DF8047B704780B483B036
:1023B00000AF786000BF0C37BD465DF8047B704706
:1023C00080B483B000AF786000BF0C37BD465DF8C5
:1023D000047B704780B483B000AF78600B46FB701D
:1023E00013463B8000BF0C37BD465DF8047B704749
:1023F00080B483B000AF786000BF0C37BD465DF895
:10240000047B704780B483B000AF786000BF0C37A6
:10241000BD465DF8047B704780B483B000AF786040
:1024200000BF0C37BD465DF8047B704780B483B0B5
:1024300000AF786000BF0C37BD465DF8047B704785
:1024400080B483B000AF786000BF0C37BD465DF844
:10245000047B704780B584B000AF78607B6893F8E8
:102460003D30FB737B6893F83E30BB737B68DB6A5F
:10247000BB607B681B8D002B50D1FB7B212B4DD18A
:10248000BB68082B1DD0BB68202B1AD0BB6813F586
:10249000803F16D07B681B685A687B681B6822F4F3
:1024A000E0625A607B6811221A637B68002283F81D
:1024B0003E207B68202283F83D207868FFF762FF8A
:1024C00060E07B681B685A687B681B6822F4E062E6
:1024D0005A607B681B681A687B681B6842F400724C
:1024E0001A607B6800221A637B68202283F83D20F3
:1024F0007B6893F83E30DBB2402B07D17B6800222B
:1025000083F83E207868FFF77DFF3BE07B68002280
:1025100083F83E207868FFF735FF33E0FB7B212B03
:1025200005D0BB7B402B2DD1FB7B222B2AD17B6896
:102530005B8D9BB2002B08D17B681B685A687B6857
:102540001B6822F480625A601CE07B6893F83E307E
:10255000DBB2402B03D1786800F08EF812E07B6884
:102560005B6A1A787B681B681A617B685B6A5A1C15
:102570007B685A627B685B8D9BB2013B9AB27B6839
:102580005A85FFE700BF1037BD4680BD80B584B0D7
:1025900000AF78607B68DB6AFB607B6893F83D3056
:1025A000DBB2212B64D17B685B8D9BB2002B12D0F8
:1025B0007B685B6A1A787B681B681A617B685B6A58
:1025C0005A1C7B685A627B685B8D9BB2013B9AB256
:1025D0007B685A854CE0FB68082B1DD0FB68202BDC
:1025E0001AD0FB6813F5803F16D07B681B685A68C9
:1025F0007B681B6822F4E0625A607B6811221A63D0
:102600007B68002283F83E207B68202283F83D20EF
:102610007868FFF7B7FE2BE07B681B685A687B6819
:102620001B6822F4E0625A607B681B681A687B684A
:102630001B6842F400721A607B6800221A637B6890
:10264000202283F83D207B6893F83E30DBB2402B9C
:1026500007D17B68002283F83E207868FFF7D2FE1E
:1026600006E07B68002283F83E207868FFF78AFE48
:1026700000BF1037BD4680BD80B584B000AF786024
:102680007B6893F83D30FB737B681B6D002B1DD17D
:102690007B68DB6C012B0BD17B689B6CDAB27B68AF
:1026A0001B681A617B681B6D9A1C7B681A6573E056
:1026B0007B689B6C9BB21B12DAB27B681B681A6149
:1026C0007B681B6D5A1C7B681A6565E07B681B6D17
:1026D000012B0BD17B689B6CDAB27B681B681A619B
:1026E0007B681B6D5A1C7B681A6555E07B681B6D07
:1026F000022B51D1FB7B222B0DD17B681B681A6802
:102700007B681B6842F480721A607B681B6D5A1CE0
:102710007B681A6540E07B685B8D9BB2002B15D00F
:10272000FB7B212B12D17B685B6A1A787B681B6864
:102730001A617B685B6A5A1C7B685A627B685B8D96
:102740009BB2013B9AB27B685A8525E07B685B8D22
:102750009BB2002B20D1FB7B212B1DD17B681B68FA
:102760005A687B681B6822F4E0625A607B681B68C9
:102770001A687B681B6842F400721A607B6800224A
:102780001A637B68202283F83D207B68002283F84F
:102790003E207868FFF736FE00BF1037BD4680BD8B
:1027A00080B584B000AF78607B6893F83D30DBB2D1
:1027B000222B40F0AC807B685B8D9BB2FB60FB689A
:1027C000032B21D97B681B681A697B685B6AD2B2CC
:1027D0001A707B685B6A5A1C7B685A627B685B8DE7
:1027E0009BB2013B9AB27B685A857B685B8D9BB23A
:1027F000032B40F08C807B681B685A687B681B68E1
:1028000022F480625A6082E07B68DB6A022B75D01A
:10281000FB68012B02D0FB68002B6FD1786801F0B8
:10282000FDFA0346002B42D17B681B681A687B685F
:102830001B6822F480621A607B681B685A687B6898
:102840001B6822F4E0625A607B681B681A697B6827
:102850005B6AD2B21A707B685B6A5A1C7B685A62E8
:102860007B685B8D9BB2013B9AB27B685A857B6823
:10287000202283F83D207B6893F83E30DBB2402B6A
:102880000AD17B68002283F83E207B6800221A630D
:102890007868FFF7C1FD3AE07B68002283F83E20AC
:1028A0007B6812221A637868FFF776FD2FE07B6859
:1028B0001B685A687B681B6822F4E0625A607B6878
:1028C0001B681A697B685B6AD2B21A707B685B6AA4
:1028D0005A1C7B685A627B685B8D9BB2013B9AB243
:1028E0007B685A857B68202283F83D207B68002224
:1028F00083F83E207868FFF799FD08E07B681B6845
:102900005A687B681B6822F480625A60FFE700BF48
:102910001037BD4680BD80B584B000AF78607B685D
:10292000DB6AFB607B685B8D9BB2042B1BD17B68F1
:102930001B685A687B681B6822F480625A607B6857
:102940001B681A697B685B6AD2B21A707B685B6A23
:102950005A1C7B685A627B685B8D9BB2013B9AB2C2
:102960007B685A85BDE07B685B8D9BB2032B29D1C8
:102970007B681B685A687B681B6822F480625A6017
:10298000FB68042B0AD0FB68022B07D07B681B680E
:102990001A687B681B6822F480621A607B681B6877
:1029A0001A697B685B6AD2B21A707B685B6A5A1CD0
:1029B0007B685A627B685B8D9BB2013B9AB27B68F5
:1029C0005A858EE07B685B8D9BB2022B76D1FB68CB
:1029D000012B02D0FB68102B08D17B681B681A689A
:1029E0007B681B6822F480621A6019E0FB68042B84
:1029F00002D0FB68022B08D17B681B681A687B68D1
:102A00001B6842F480621A600AE0FB68102B07D052
:102A10007B681B681A687B681B6842F400721A6046
:102A20007B681B681A697B685B6AD2B21A707B6824
:102A30005B6A5A1C7B685A627B685B8D9BB2013B68
:102A40009AB27B685A857B681B681A697B685B6AE7
:102A5000D2B21A707B685B6A5A1C7B685A627B68C8
:102A60005B8D9BB2013B9AB27B685A857B681B6881
:102A70005A687B681B6822F440725A607B68202287
:102A800083F83D207B6893F83E30DBB2402B0AD1BF
:102A90007B68002283F83E207B6800221A637868F6
:102AA000FFF7BAFC1DE07B68002283F83E207B68BC
:102AB00012221A637868FFF76FFC12E07B681B68CC
:102AC0001A697B685B6AD2B21A707B685B6A5A1CAF
:102AD0007B685A627B685B8D9BB2013B9AB27B68D4
:102AE0005A8500BF1037BD4680BD80B483B000AFAB
:102AF00078607B6893F83E30DBB2402B17D17B685F
:102B00001B6D002B09D17B685B6CDBB21A467B68BE
:102B10001B6802F0FE021A6167E07B685B6CDBB247
:102B200043F00103DAB27B681B681A615DE07B68E1
:102B30001B69B3F5804F33D17B6893F83D30DBB22E
:102B4000212B09D17B685B6CDBB21A467B681B6862
:102B500002F0FE021A6108E07B685B6CDBB243F0B6
:102B60000103DAB27B681B681A617B685B6B002B20
:102B700004D07B685B6BDB6B002B08D17B689B6BA5
:102B8000002B32D07B689B6BDB6B002B2DD07B68DE
:102B90001B685A687B681B6842F400625A6024E034
:102BA0007B681B6D002B0ED17B685B6C9BB2DB11CD
:102BB000DBB203F00603DBB263F00F03DAB27B682B
:102BC0001B681A6111E07B681B6D012B0DD17B68BE
:102BD0005B6C9BB2DB11DBB203F00603DBB263F08C
:102BE0000E03DAB27B681B681A6100BF0C37BD4662
:102BF0005DF8047B704780B483B000AF78607B6879
:102C00005B6CDAB27B681B681A617B685B6B002BBC
:102C100004D07B685B6BDB6B002B08D17B689B6B04
:102C2000002B0CD07B689B6BDB6B002B07D07B6889
:102C30001B685A687B681B6842F400625A6000BFD8
:102C40000C37BD465DF8047B704780B491B000AF8F
:102C500078607B6893F83E3087F83F307B68DB6AAA
:102C6000BB637B681B6B7B637B6893F83D30DBB297
:102C7000222B40F069817B681B6D002B0FD197F8E8
:102C80003F30402B0BD100233B637B681B685B69A3
:102C90003B637B681B689B693B633B6B60E17B68C4
:102CA0001B6D002B1DD17B681B69B3F5404F18D1FC
:102CB0000023FB627B681B685B69FB627B681B68A7
:102CC0009B69FB62FB6A7B681B681A687B681B68F0
:102CD00042F480721A607B681B6D5A1C7B681A650F
:102CE0003EE17B685B8D9BB2002B13D10023BB625E
:102CF0007B681B685B69BB627B681B689B69BB6206
:102D0000BB6A7B681B681A687B681B6842F40072A8
:102D10001A6015E17B685B8D9BB2012B40F08A80C5
:102D2000BB6B13F5803F37D17B681B681A687B68E3
:102D30001B6822F480621A607B681B685B6803F47E
:102D40000063B3F5006F13D17B681B681A687B685A
:102D50001B6822F480621A6000237B627B681B6818
:102D60005B697B627B681B689B697B627B6AE7E0CF
:102D700000233B627B681B685B693B627B681B6866
:102D80009B693B623B6A7B681B681A687B681B68AF
:102D900042F400721A60D3E0BB6B082B2ED0BB6BE1
:102DA000202B2BD07B6B122B02D1BB6B012B25D19F
:102DB000BB6B042B0ED0BB6B022B0BD0BB6B102B51
:102DC00008D07B681B681A687B681B6822F48062E5
:102DD0001A6007E07B681B681A687B681B6842F40E
:102DE00080621A600023FB617B681B685B69FB6182
:102DF0007B681B689B69FB61FB69A1E07B681B68C2
:102E00001A687B681B6822F480621A600023BB6129
:102E10007B681B685B69BB617B681B689B69BB61E6
:102E2000BB697B681B681A687B681B6842F4007288
:102E30001A6085E07B685B8D9BB2022B4DD1BB6B2A
:102E4000042B16D0BB6B022B13D0BB6B102B10D0F6
:102E50007B681B681A687B681B6822F480621A60B2
:102E60007B681B681A687B681B6842F400621A6002
:102E700007E07B681B681A687B681B6842F4806205
:102E80001A607B681B685B6803F40063B3F5006F2E
:102E900017D1BB6B13F5803F0BD0BB6B012B08D058
:102EA000BB6B082B05D0BB6B102B02D0BB6B202B50
:102EB00007D17B681B685A687B681B6842F48052A4
:102EC0005A6000237B617B681B685B697B617B6860
:102ED0001B689B697B617B6932E07B681B681A68B1
:102EE0007B681B6842F480621A607B681B685B68C1
:102EF00003F40063B3F5006F17D1BB6B13F5803F8C
:102F00000BD0BB6B012B08D0BB6B082B05D0BB6B68
:102F1000102B02D0BB6B202B07D17B681B685A6833
:102F20007B681B6842F480525A6000233B617B68D7
:102F30001B685B693B617B681B689B693B613B6904
:102F40007B6800221A650BE00023FB607B681B682E
:102F50005B69FB607B681B689B69FB60FB68FFE744
:102F600000BF4437BD465DF8047B704780B584B030
:102F700000AF78607B6893F83D30FB737B685B8DB6
:102F80009BB2002B2BD07B685B6A1A787B681B682E
:102F90001A617B685B6A5A1C7B685A627B685B8D2E
:102FA0009BB2013B9AB27B685A857B685B8D9BB272
:102FB000002B14D1FB7B292B11D17B681B685A682D
:102FC0007B681B6822F480625A607B6821221A6346
:102FD0007B68282283F83D207868FFF7E7F900BF77
:102FE0001037BD4680BD80B483B000AF78607B6889
:102FF0005B8D9BB2002B11D07B685B6A1A787B6873
:103000001B681A617B685B6A5A1C7B685A627B6822
:103010005B8D9BB2013B9AB27B685A8500BF0C372F
:10302000BD465DF8047B704780B584B000AF786022
:103030007B6893F83D30FB737B685B8D9BB2002B04
:103040002CD07B681B681A697B685B6AD2B21A70E5
:103050007B685B6A5A1C7B685A627B685B8D9BB29B
:10306000013B9AB27B685A857B685B8D9BB2002BD3
:1030700014D1FB7B2A2B11D17B681B685A687B68B3
:103080001B6822F480625A607B6822221A637B6884
:10309000282283F83D207868FFF792F900BF1037A7
:1030A000BD4680BD80B483B000AF78607B685B8D27
:1030B0009BB2002B12D07B681B681A697B685B6A25
:1030C000D2B21A707B685B6A5A1C7B685A627B6852
:1030D0005B8D9BB2013B9AB27B685A8500BF0C376F
:1030E000BD465DF8047B704780B584B000AF786062
:1030F00039600023FB737B6893F83D30DBB203F04B
:103100002803282B27D17B681B685A687B681B68BB
:1031100022F480625A603B689B0803F00103002B95
:1031200001D10123FB733B68DB0903F00103002B92
:1031300003D17B68DB68BB8102E07B689B69BB8154
:103140007B68002283F83C20BA89FB7B19467868AB
:10315000FFF740F90EE00023BB607B681B685B69EA
:10316000BB607B681B689B69BB60BB687B68002297
:1031700083F83C2000BF1037BD4680BD80B584B0C9
:1031800000AF78607B6893F83D30FB737B681B6809
:103190005A687B681B6822F4E0625A600023BB60B7
:1031A0007B681B685B69BB607B681B681A687B680F
:1031B0001B6842F001021A60BB687B681B681A68D2
:1031C0007B681B6822F480621A607B681B685B68FE
:1031D00003F40063B3F5006F72D1FB7B222B02D0A6
:1031E000FB7B2A2B35D17B689B6B1B685B689AB293
:1031F0007B685A857B685B8D9BB2002B05D07B6812
:103200001B6C43F004027B681A647B681B685A6875
:103210007B681B6822F400625A607B689B6B1846CF
:10322000FDF773FF0346012B49D07B689B6B694A0E
:103230001A657B689B6B1846FDF745FF0346002B1C
:103240003DD07B689B6B1B6D7A68926B10469847EC
:1032500035E07B685B6B1B685B689AB27B685A855C
:103260007B685B8D9BB2002B05D07B681B6C43F0A9
:1032700004027B681A647B681B685A687B681B6859
:1032800022F400625A607B685B6B1846FDF73DFFD5
:103290000346012B14D07B685B6B4E4A1A657B6832
:1032A0005B6B1846FDF70FFF0346002B08D07B68C9
:1032B0005B6B1B6D7A68526B1046984700E000BF4D
:1032C0007B685B8D9BB2002B3ED07B681B685B6983
:1032D00003F00403042B12D17B681B681A697B6816
:1032E0005B6AD2B21A707B685B6A5A1C7B685A624E
:1032F0007B685B8D9BB2013B9AB27B685A857B6889
:103300001B685B6903F04003402B12D17B681B688C
:103310001A697B685B6AD2B21A707B685B6A5A1C56
:103320007B685A627B685B8D9BB2013B9AB27B687B
:103330005A857B685B8D9BB2002B05D07B681B6C2C
:1033400043F004027B681A647B681B6C002B03D07B
:10335000786800F0B3F839E0FB7B2A2B09D17B6851
:1033600000221A637B68282283F83D207868FFF7E3
:1033700027F87B6893F83D30DBB2282B11D17B68AE
:10338000154ADA627B6800221A637B68202283F880
:103390003D207B68002283F83E207868FFF728F8FC
:1033A00014E07B681B6B222B02D0FB7B222B0DD100
:1033B0007B6800221A637B68202283F83D207B68AB
:1033C000002283F83E207868FEF7FAFF00BF10372E
:1033D000BD4680BD1D3A00080000FFFF80B584B0E7
:1033E00000AF78607B6893F83D30FB737B68DB6AE5
:1033F000BB60BB68082B02D0BB68202B29D1FB7BAC
:10340000282B26D17B682C4ADA627B681B685A68B5
:103410007B681B6822F4E0625A607B681B686FF46B
:1034200080625A617B681B681A687B681B6822F49B
:1034300080621A607B6800221A637B68202283F80E
:103440003D207B68002283F83E207868FEF7D0FF9D
:103450002EE0FB7B212B26D17B68174ADA627B6842
:1034600021221A637B68202283F83D207B6800229A
:1034700083F83E207B681B685A687B681B6822F4CF
:10348000E0625A607B681B686FF480625A617B68F7
:103490001B681A687B681B6822F480621A6078686F
:1034A000FEF784FF04E07B681B686FF480625A615A
:1034B00000BF1037BD4680BD0000FFFF80B584B05F
:1034C00000AF78607B6893F83D30FB737B6893F8BE
:1034D0003E30BB73BB7B102B02D0BB7B402B0AD191
:1034E000FB7B222B07D17B681B681A687B681B68F3
:1034F00022F400621A60FB7B03F02803282B07D11B
:103500007B6800221A637B68282283F83D2015E03F
:103510007B681B685B6803F40063B3F5006F0AD037
:10352000FB7B602B07D07B68202283F83D207B68E3
:10353000002283F83E207B6800221A637B681B68A8
:103540005B6803F40063B3F5006F62D17B681B68AE
:103550005A687B681B6822F400625A607B685B6B68
:1035600093F83530DBB2012B20D07B685B6B6A4A65
:103570001A657B685B6B1846FDF7A5FD0346002BBB
:1035800000F089807B681B681A687B681B6822F0E2
:1035900001021A607B68202283F83D207B685B6B08
:1035A0001B6D7A68526B1046984774E07B689B6B82
:1035B000594A1A657B689B6B1846FDF784FD0346E4
:1035C000002B68D07B681B685B6903F04003402BCD
:1035D0000BD17B681B681A697B685B6AD2B21A7070
:1035E0007B685B6A5A1C7B685A627B681B681A6836
:1035F0007B681B6822F001021A607B68202283F836
:103600003D207B689B6B1B6D7A68926B10469847D8
:1036100041E07B6893F83D30DBB2602B25D17B68BD
:10362000202283F83D207B6800221A647B681B6897
:103630005B6903F04003402B0BD17B681B681A6960
:103640007B685B6AD2B21A707B685B6A5A1C7B68C3
:103650005A627B681B681A687B681B6822F001024B
:103660001A607868FEF7ECFE15E07B681B685B6902
:1036700003F04003402B0BD17B681B681A697B6801
:103680005B6AD2B21A707B685B6A5A1C7B685A62AA
:103690007868FEF7CBFE7B681B6CBB60BB6803F0F1
:1036A0000103002B0ED1BB6803F00203002B09D1EC
:1036B000BB6803F00403002B04D1BB6803F00803CC
:1036C000002B07D07B681B685A687B681B6822F454
:1036D000E0625A607B6893F83D30FB737B681B6C3B
:1036E00003F00403042B13D1FB7B282B10D17B6840
:1036F0000A4ADA627B6800221A637B68202283F818
:103700003D207B68002283F83E207868FEF770FE3B
:1037100000BF1037BD4680BD1D3A00080000FFFF06
:1037200080B588B002AFF860084611461A460346D5
:103730007B810B463B811346FB80FB681B681A6844
:10374000FB681B6842F480721A607B6A00933B6AD4
:1037500000224FF00111F86800F008FA0346002B30
:103760000DD0FB681B681B6803F48073B3F5807F82
:1037700003D1FB684FF400721A6403235FE07B8976
:10378000DBB21A46FB681B6802F0FE021A617B6A14
:103790003A6A2D49F86800F040FA0346002B01D040
:1037A00001234CE000237B61FB681B685B697B6144
:1037B000FB681B689B697B617B697A6A396AF86878
:1037C00000F0AAFA0346002B0DD0FB681B6C042BFB
:1037D00007D1FB681B681A68FB681B6842F400721B
:1037E0001A6001232BE0FB88012B05D13B89DAB25B
:1037F000FB681B681A6121E03B891B0A9BB2DAB2A5
:10380000FB681B681A617A6A396AF86800F084FA02
:103810000346002B0DD0FB681B6C042B07D1FB6803
:103820001B681A68FB681B6842F400721A60012367
:1038300005E03B89DAB2FB681B681A610023184671
:103840001837BD4680BD00BF0200010080B588B0BA
:1038500002AFF860084611461A4603467B810B46C4
:103860003B811346FB80FB681B681A68FB681B687A
:1038700042F480621A60FB681B681A68FB681B6868
:1038800042F480721A607B6A00933B6A00224FF018
:103890000111F86800F06AF90346002B0DD0FB68AF
:1038A0001B681B6803F48073B3F5807F03D1FB684A
:1038B0004FF400721A640323AAE07B89DBB21A4634
:1038C000FB681B6802F0FE021A617B6A3A6A524981
:1038D000F86800F0A2F90346002B01D0012397E01D
:1038E00000237B61FB681B685B697B61FB681B686D
:1038F0009B697B617B697A6A396AF86800F00CFA27
:103900000346002B0DD0FB681B6C042B07D1FB6812
:103910001B681A68FB681B6842F400721A60012376
:1039200076E0FB88012B05D13B89DAB2FB681B6886
:103930001A6121E03B891B0A9BB2DAB2FB681B6863
:103940001A617A6A396AF86800F0E6F90346002BD2
:103950000DD0FB681B6C042B07D1FB681B681A6831
:10396000FB681B6842F400721A60012350E03B8937
:10397000DAB2FB681B681A617A6A396AF86800F083
:10398000CBF90346002B0DD0FB681B6C042B07D131
:10399000FB681B681A68FB681B6842F400721A60B7
:1039A000012335E0FB681B681A68FB681B6842F45A
:1039B00080721A607B6A00933B6A00224FF001110B
:1039C000F86800F0D3F80346002B0DD0FB681B68A5
:1039D0001B6803F48073B3F5807F03D1FB684FF459
:1039E00000721A64032313E07B89DBB243F0010306
:1039F000DAB2FB681B681A617B6A3A6A0649F868A2
:103A000000F00BF90346002B01D0012300E0002356
:103A100018461837BD4680BD0200010080B586B04B
:103A200000AF78600023FB607B689B6B7B617B69E8
:103A300093F83D30FB744B4B1B68DB084A4AA2FBF2
:103A400003231A0A13469B001344DA00D31AFB60BF
:103A5000FB68002B06D17B691B6C43F020027B695D
:103A60001A640AE0FB68013BFB607B691B681B680A
:103A700003F40073B3F5007FEAD07B695B6B002B26
:103A800003D07B695B6B0022DA637B699B6B002B45
:103A900003D07B699B6B0022DA637B691B681A6821
:103AA0007B691B6822F480621A607B6900225A8558
:103AB0007B695B6B002B03D07B695B6B00221A6513
:103AC0007B699B6B002B03D07B699B6B00221A6583
:103AD0007B691B681A687B691B6822F001021A6007
:103AE0007B6993F83D30DBB2602B0ED17B692022DD
:103AF00083F83D207B69002283F83E207B69002209
:103B00001A647869FEF79CFC27E0FB7C03F028032D
:103B1000282B17D17B691B681A687B691B6842F0E8
:103B200001021A607B691B681A687B691B6842F492
:103B300080621A607B6900221A637B69282283F8FD
:103B40003D2007E07B69202283F83D207B6900222D
:103B500083F83E207869FEF769FC00BF1837BD4640
:103B600080BD00BF2C00002089B5F81480B584B05A
:103B700000AFF860B9603B601346FB7125E03B681D
:103B8000B3F1FF3F21D0FDF7EDF80246BB69D31A30
:103B90003A689A4202D33B68002B16D1FB68002298
:103BA0001A63FB68202283F83D20FB68002283F81B
:103BB0003E20FB681B6C43F02002FB681A64FB6824
:103BC000002283F83C20012323E0BB681B0CDBB2FE
:103BD000012B0DD1FB681B685B69DA43BB6813409E
:103BE0009BB2002B0CBF01230023DBB21A460CE072
:103BF000FB681B689B69DA43BB6813409BB2002BD0
:103C00000CBF01230023DBB21A46FB799A42B6D0DF
:103C1000002318461037BD4680BD80B584B000AF84
:103C2000F860B9607A603B6051E0FB681B685B69D3
:103C300003F48063B3F5806F23D1FB681B681A68B7
:103C4000FB681B6842F400721A60FB681B686FF423
:103C500080625A61FB6800221A63FB68202283F8A5
:103C60003D20FB68002283F83E20FB681B6C43F07C
:103C70000402FB681A64FB68002283F83C200123DD
:103C800046E07B68B3F1FF3F21D0FDF76BF80246B9
:103C90003B68D31A7A689A4202D37B68002B16D10C
:103CA000FB6800221A63FB68202283F83D20FB6832
:103CB000002283F83E20FB681B6C43F02002FB6867
:103CC0001A64FB68002283F83C20012320E0BB68D3
:103CD0001B0CDBB2012B0CD1FB681B685B69DA4360
:103CE000BB6813409BB2002B14BF01230023DBB23F
:103CF0000BE0FB681B689B69DA43BB6813409BB20F
:103D0000002B14BF01230023DBB2002B8DD1002335
:103D100018461037BD4680BD80B584B000AFF8604E
:103D2000B9607A602DE0F86800F000F90346002BD6
:103D300001D001232DE0BB68B3F1FF3F21D0FDF797
:103D400011F802467B68D31ABA689A4202D3BB685C
:103D5000002B16D1FB6800221A63FB68202283F82F
:103D60003D20FB68002283F83E20FB681B6C43F07B
:103D70002002FB681A64FB68002283F83C200123C0
:103D800007E0FB681B685B6903F08003802BCAD1E6
:103D9000002318461037BD4680BD80B584B000AF03
:103DA000F860B9607A602DE0F86800F0BFF803466B
:103DB000002B01D001232DE0BB68B3F1FF3F21D0E0
:103DC000FCF7D0FF02467B68D31ABA689A4202D346
:103DD000BB68002B16D1FB6800221A63FB68202207
:103DE00083F83D20FB68002283F83E20FB681B6CB3
:103DF00043F02002FB681A64FB68002283F83C2031
:103E0000012307E0FB681B685B6903F00403042BD4
:103E1000CAD1002318461037BD4680BD80B485B096
:103E200000AF78600023FB60134B1B68DB08134A6C
:103E3000A2FB03231A0A13469B001344FB60FB6892
:103E4000013BFB60FB68002B07D17B681B6C43F0D8
:103E500020027B681A64012308E07B681B681B68EA
:103E600003F40073B3F5007FE9D00023184614373C
:103E7000BD465DF8047B70472C00002089B5F8141E
:103E800080B584B000AFF860B9607A6042E0FB684A
:103E90001B685B6903F01003102B19D1FB681B68CA
:103EA0006FF010025A61FB6800221A63FB6820223F
:103EB00083F83D20FB68002283F83E20FB681A6CE3
:103EC000FB681A64FB68002283F83C20012329E088
:103ED000FCF748FF02467B68D31ABA689A4202D3BD
:103EE000BB68002B16D1FB6800221A63FB682022F6
:103EF00083F83D20FB68002283F83E20FB681B6CA2
:103F000043F02002FB681A64FB68002283F83C201F
:103F1000012307E0FB681B685B6903F04003402B4B
:103F2000B5D1002318461037BD4680BD80B483B09C
:103F300000AF78607B681B685B6903F48063B3F54E
:103F4000806F1BD17B681B686FF480625A617B684D
:103F500000221A637B68202283F83D207B680022C0
:103F600083F83E207B681B6C43F004027B681A6474
:103F70007B68002283F83C20012300E000231846E0
:103F80000C37BD465DF8047B704780B483B000AF4A
:103F900078607B68DB6AB3F52A0F03D17B68012266
:103FA000DA6207E07B68DB6AB3F12A4F02D17B68F3
:103FB0000822DA6200BF0C37BD465DF8047B70470B
:103FC00080B586B000AF78607B68002B01D10123FB
:103FD00067E27B681B6803F00103002B75D0884BF8
:103FE0009B6803F00C03042B0CD0854B9B6803F0FB
:103FF0000C03082B12D1824B5B6803F48003B3F5EA
:10400000800F0BD17E4B1B6803F40033002B5BD079
:104010007B685B68002B57D1012342E27B685B68B9
:10402000B3F5803F06D1764B1B68754A43F4803365
:1040300013601DE07B685B68B3F5A02F0CD1704B5B
:104040001B686F4A43F4802313606D4B1B686C4AF6
:1040500043F4803313600BE0694B1B68684A23F418
:1040600080331360664B1B68654A23F4802313601A
:104070007B685B68002B13D0FCF774FE386108E0A6
:10408000FCF770FE02463B69D31A642B01D9032367
:1040900007E25B4B1B6803F40033002BF0D014E005
:1040A000FCF760FE386108E0FCF75CFE02463B6905
:1040B000D31A642B01D90323F3E1514B1B6803F49A
:1040C0000033002BF0D100E000BF7B681B6803F0D9
:1040D0000203002B63D04A4B9B6803F00C03002BB8
:1040E0000BD0474B9B6803F00C03082B1CD1444BAF
:1040F0005B6803F48003002B16D1414B1B6803F06F
:104100000203002B05D07B68DB68012B01D0012363
:10411000C7E13B4B1B6823F0F8027B681B69DB009F
:10412000374913430B603AE07B68DB68002B20D0F3
:10413000344B01221A60FCF715FE386108E0FCF7E9
:1041400011FE02463B69D31A022B01D90323A8E1D1
:104150002B4B1B6803F00203002BF0D0284B1B688D
:1041600023F0F8027B681B69DB00254913430B60D1
:1041700015E0244B00221A60FCF7F4FD386108E0DA
:10418000FCF7F0FD02463B69D31A022B01D9032349
:1041900087E11B4B1B6803F00203002BF0D17B6807
:1041A0001B6803F00803002B36D07B685B69002B8B
:1041B00016D0154B01221A60FCF7D4FD386108E0D7
:1041C000FCF7D0FD02463B69D31A022B01D9032329
:1041D00067E10B4B5B6F03F00203002BF0D01BE099
:1041E000094B00221A60FCF7BDFD38610EE0FCF7B8
:1041F000B9FD02463B69D31A022B07D9032350E1CC
:104200000038024000004742800E4742884B5B6FF7
:1042100003F00203002BEAD17B681B6803F0040360
:10422000002B00F097800023FB75814B1B6C03F083
:104230008053002B0FD10023BB607D4B1B6C7C4A4D
:1042400043F0805313647A4B1B6C03F08053BB60C4
:10425000BB680123FB75774B1B6803F48073002B4D
:1042600018D1744B1B68734A43F480731360FCF7D6
:1042700079FD386108E0FCF775FD02463B69D31A09
:10428000022B01D903230CE16A4B1B6803F48073F2
:10429000002BF0D07B689B68012B06D1644B1B6F11
:1042A000634A43F0010313671CE07B689B68052B9E
:1042B0000CD15F4B1B6F5E4A43F0040313675C4BEA
:1042C0001B6F5B4A43F0010313670BE0584B1B6FF6
:1042D000574A23F001031367554B1B6F544A23F0D1
:1042E000040313677B689B68002B15D0FCF73AFD2D
:1042F00038610AE0FCF736FD02463B69D31A41F209
:104300008832934201D90323CBE0494B1B6F03F062
:104310000203002BEED014E0FCF724FD38610AE024
:10432000FCF720FD02463B69D31A41F288329342E2
:1043300001D90323B5E03E4B1B6F03F00203002BB2
:10434000EED1FB7D012B05D1394B1B6C384A23F094
:10435000805313647B689B69002B00F0A180344B71
:104360009B6803F00C03082B5CD07B689B69022BD5
:1043700041D1314B00221A60FCF7F4FC386108E0AF
:10438000FCF7F0FC02463B69D31A022B01D9032348
:1043900087E0274B1B6803F00073002BF0D17B688C
:1043A000DA697B681B6A1A437B685B6A9B011A4364
:1043B0007B689B6A5B08013B1B041A437B68DB6AD2
:1043C0001B061B4913434B601B4B01221A60FCF771
:1043D000C9FC386108E0FCF7C5FC02463B69D31A0A
:1043E000022B01D903235CE0114B1B6803F000731F
:1043F000002BF0D054E0104B00221A60FCF7B2FC06
:10440000386108E0FCF7AEFC02463B69D31A022B88
:1044100001D9032345E0064B1B6803F00073002B12
:10442000F0D13DE07B689B69012B07D1012338E087
:104430000038024000700040600047421B4B5B6840
:10444000FB607B689B69012B28D0FB6803F480022A
:104450007B68DB699A4221D1FB6803F03F027B68ED
:104460001B6A9A421AD1FA6847F6C07313407A68F9
:10447000526A9201934211D1FB6803F440327B6887
:104480009B6A5B08013B1B049A4207D1FB6803F05F
:1044900070627B68DB6A1B069A4201D0012300E050
:1044A000002318461837BD4680BD00BF00380240C3
:1044B00080B584B000AF786039607B68002B01D193
:1044C0000123CCE0684B1B6803F007033A689A426B
:1044D0000CD9654B3A68D2B21A70634B1B6803F073
:1044E00007033A689A4201D00123B8E07B681B6851
:1044F00003F00203002B20D07B681B6803F0040349
:10450000002B05D0594B9B68584A43F4E053936005
:104510007B681B6803F00803002B05D0534B9B6896
:10452000524A43F460439360504B9B6823F0F0027F
:104530007B689B684D4913438B607B681B6803F065
:104540000103002B44D07B685B68012B07D1474BEC
:104550001B6803F40033002B19D101237FE07B6833
:104560005B68022B03D07B685B68032B07D13F4B52
:104570001B6803F00073002B09D101236FE03B4B54
:104580001B6803F00203002B01D1012367E0374BC6
:104590009B6823F003027B685B68344913438B609C
:1045A000FCF7E0FBF8600AE0FCF7DCFB0246FB6886
:1045B000D31A41F28832934201D903234FE02B4BA7
:1045C0009B6803F00C027B685B689B009A42EBD10E
:1045D000254B1B6803F007033A689A420CD2224B22
:1045E0003A68D2B21A70204B1B6803F007033A688E
:1045F0009A4201D0012332E07B681B6803F0040378
:10460000002B08D0194B9B6823F4E0527B68DB68D1
:10461000164913438B607B681B6803F00803002B6B
:1046200009D0124B9B6823F460427B681B69DB0056
:104630000E4913438B6000F021F802460B4B9B6838
:104640001B0903F00F030A49CB5C22FA03F3094A62
:104650001360094B1B681846FCF740FB0023184603
:104660001037BD4680BD00BF003C0240003802400C
:10467000746200082C000020300000202DE9B04FAB
:1046800090B000AF00237B630023FB6300233B63F8
:104690000023BB63594B9B6803F00C03082B0DD020
:1046A000082B00F2A180002B02D0042B03D09BE04A
:1046B000534BBB639BE0534BBB6398E04F4B5B6832
:1046C00003F03F037B634D4B5B6803F48003002BD7
:1046D00028D04A4B5B689B0900223B627A623B6AA6
:1046E000C3F308000021474B03FB01F2002300FB4A
:1046F00003F31344434AA0FB0212FA620A46BA6269
:10470000FA6A1344FB627B6B0022BB61FA61D7E952
:104710000623D7E90A01FBF7B3FD02460B46134611
:10472000FB6353E0354B5B689B0900223B617A6178
:104730003B69C3F3080A4FF0000B52465B464FF04B
:1047400000004FF00001590141EAD26150010246D8
:104750000B46B2EB0A0863EB0B094FF000024FF077
:1047600000034FEA891343EA98634FEA8812B2EBD9
:10477000080463EB09054FF000024FF00003EB0063
:1047800043EA5473E20014461D4614EB0A033B60EF
:1047900045EB0B037B604FF000024FF00003D7E9BD
:1047A000004529468B02214643EA915321468A025D
:1047B000104619467B6B0022BB60FA60D7E90223E2
:1047C000FBF75EFD02460B461346FB630B4B5B6833
:1047D0001B0C03F0030301335B003B63FA6B3B6B81
:1047E000B2FBF3F3BB6302E0054BBB6300BFBB6BE3
:1047F00018464037BD46BDE8B08F00BF00380240C4
:104800000024F40040787D0180B400AF034B1B68A6
:104810001846BD465DF8047B704700BF2C000020A1
:1048200080B500AFFFF7F0FF0246054B9B689B0A7F
:1048300003F007030349CB5C22FA03F3184680BD5B
:10484000003802408462000880B500AFFFF7DCFF4B
:104850000246054B9B685B0B03F007030349CB5CE7
:1048600022FA03F3184680BD003802408462000833
:1048700080B582B000AF78607B68002B01D1012346
:104880003FE07B6893F83D30DBB2002B06D17B68BC
:10489000002283F83C207868FCF7F4F87B68242237
:1048A00083F83D207B681B68DA687B681B6822F40C
:1048B0000052DA60786800F07BFD7B681B681A693B
:1048C0007B681B6822F490421A617B681B685A69F6
:1048D0007B681B6822F02A025A617B681B68DA68D1
:1048E0007B681B6842F40052DA607B6800221A641D
:1048F0007B68202283F83D207B68202283F83E20BD
:10490000002318460837BD4680BD80B58AB002AF87
:10491000F860B9603B601346FB8000237B61FB6855
:1049200093F83D30DBB2202B7CD1BB68002B02D04A
:10493000FB88002B01D1012375E0FB6893F83C3024
:10494000012B01D102236EE0FB68012283F83C2099
:10495000FB6800221A64FB68212283F83D20FCF7E3
:1049600001FA7861FB68FA889A84FB68FA88DA842D
:10497000FB689B68B3F5805F08D1FB681B69002B5F
:1049800004D10023FB61BB68BB6103E0BB68FB6132
:104990000023BB61FB68002283F83C202AE03B68CF
:1049A00000937B6900228021F86800F0F9FA034641
:1049B000002B01D0032336E0FB69002B0BD1BB6930
:1049C0001B881A46FB681B68C2F308025A60BB6961
:1049D0000233BB6107E0FB691A78FB681B685A6009
:1049E000FB690133FB61FB68DB8C9BB2013B9AB234
:1049F000FB68DA84FB68DB8C9BB2002BCFD13B6871
:104A000000937B6900224021F86800F0C9FA034650
:104A1000002B01D0032306E0FB68202283F83D2011
:104A2000002300E0022318462037BD4680BD000069
:104A300080B5BAB000AF78607B681B681B68C7F8A8
:104A4000E4307B681B68DB68C7F8E0307B681B6874
:104A50005B69C7F8DC300023C7F8D8300023C7F8FB
:104A6000D430D7F8E43003F00F03C7F8D830D7F8C4
:104A7000D830002B0FD1D7F8E43003F02003002BFF
:104A800009D0D7F8E03003F02003002B03D078687A
:104A900000F0D3FB56E2D7F8D830002B00F0DE80D0
:104AA000D7F8DC3003F00103002B06D1D7F8E03053
:104AB00003F49073002B00F0D180D7F8E43003F0BA
:104AC0000103002B0BD0D7F8E03003F48073002BE8
:104AD00005D07B681B6C43F001027B681A64D7F831
:104AE000E43003F00403002B0BD0D7F8DC3003F0E4
:104AF0000103002B05D07B681B6C43F002027B682E
:104B00001A64D7F8E43003F00203002B0BD0D7F877
:104B1000DC3003F00103002B05D07B681B6C43F0F5
:104B200004027B681A64D7F8E43003F00803002B12
:104B300011D0D7F8E03003F02003002B05D1D7F8CF
:104B4000DC3003F00103002B05D07B681B6C43F0C5
:104B500008027B681A647B681B6C002B00F0ED81F7
:104B6000D7F8E43003F02003002B08D0D7F8E0306A
:104B700003F02003002B02D0786800F05EFB7B6816
:104B80001B685B6903F04003402B0CBF012300232B
:104B9000DBB2C7F8D4307B681B6C03F00803002B32
:104BA00003D1D7F8D430002B4FD0786800F066FAE4
:104BB0007B681B685B6903F04003402B41D17B6835
:104BC0001B681433C7F89C30D7F89C3053E8003F7B
:104BD000C7F89830D7F8983023F04003C7F8D030A2
:104BE0007B681B681433D7F8D020C7F8A820C7F813
:104BF000A430D7F8A410D7F8A82041E80023C7F8BC
:104C0000A030D7F8A030002BD9D17B689B6B002B4C
:104C100013D07B689B6B7D4A1A657B689B6B18463B
:104C2000FCF751FA0346002B16D07B689B6B1B6D7B
:104C30007A68926B104698470EE0786800F09AF90F
:104C40000AE0786800F096F906E0786800F092F9DA
:104C50007B6800221A6470E100BF6EE17B681B6B09
:104C6000012B40F04A81D7F8E43003F01003002B09
:104C700000F04381D7F8E03003F01003002B00F080
:104C80003C810023BB607B681B681B68BB607B6842
:104C90001B685B68BB60BB687B681B685B6903F073
:104CA0004003402B40F0B4807B689B6B1B685B68C3
:104CB000A7F8BE30B7F8BE30002B00F040817B680B
:104CC0009B8DB7F8BE209A4280F039817B68B7F897
:104CD000BE20DA857B689B6BDB69B3F5807F00F0D3
:104CE00088807B681B680C33C7F88830D7F8883019
:104CF00053E8003FC7F88430D7F8843023F480733A
:104D0000C7F8B8307B681B680C33D7F8B820C7F8F1
:104D10009420C7F89030D7F89010D7F8942041E845
:104D20000023C7F88C30D7F88C30002BD9D17B68A2
:104D30001B6814337B677B6F53E8003F3B673B6F17
:104D400023F00103C7F8B4307B681B681433D7F82D
:104D5000B420C7F88020FB67F96FD7F8802041E8BE
:104D60000023BB67BB6F002BE1D17B681B6814334A
:104D70003B663B6E53E8003FFB65FB6D23F0400351
:104D8000C7F8B0307B681B681433D7F8B020FA66D8
:104D9000BB66B96EFA6E41E800237B667B6E002B22
:104DA000E3D17B68202283F83E207B6800221A63CF
:104DB0007B681B680C33FB64FB6C53E8003FBB64EF
:104DC000BB6C23F01003C7F8AC307B681B680C3356
:104DD000D7F8AC20BA657B65796DBA6D41E80023E0
:104DE0003B653B6D002BE3D17B689B6B1846FCF762
:104DF000FAF87B689A8D7B68DB8D9BB2D31A9BB2E5
:104E00001946786800F0C0F899E000BF43510008E7
:104E10007B689A8D7B68DB8D9BB2D31AA7F8CE3066
:104E20007B68DB8D9BB2002B00F08B80B7F8CE3017
:104E3000002B00F086807B681B680C33BB63BB6B68
:104E400053E8003F7B637B6B23F49073C7F8C83053
:104E50007B681B680C33D7F8C8207A643B64396CD4
:104E60007A6C41E80023FB63FB6B002BE3D17B688A
:104E70001B6814337B627B6A53E8003F3B623B6AEA
:104E800023F00103C7F8C4307B681B681433D7F8DC
:104E9000C4203A63FB62F96A3A6B41E80023BB62C3
:104EA000BB6A002BE3D17B68202283F83E207B681D
:104EB00000221A637B681B680C333B613B6953E833
:104EC000003FFB60FB6823F01003C7F8C0307B682D
:104ED0001B680C33D7F8C020FA61BB61B969FA6965
:104EE00041E800237B617B69002BE3D1B7F8CE302A
:104EF0001946786800F048F823E0D7F8E43003F06A
:104F00008003002B09D0D7F8E03003F08003002B9A
:104F100003D0786800F029F914E0D7F8E43003F002
:104F20004003002B0ED0D7F8E03003F04003002BF5
:104F300008D0786800F069F904E000BF02E000BF23
:104F400000E000BFE837BD4680BD00BF80B483B03D
:104F500000AF786000BF0C37BD465DF8047B70473A
:104F600080B483B000AF786000BF0C37BD465DF8F9
:104F7000047B704780B483B000AF786000BF0C370B
:104F8000BD465DF8047B704780B483B000AF7860A5
:104F90000B467B8000BF0C37BD465DF8047B704735
:104FA00080B590B000AFF860B9603B601346FB710C
:104FB00050E0BB6CB3F1FF3F4CD0BB6C002B07D073
:104FC000FBF7D0FE02463B68D31ABA6C9A4241D234
:104FD000FB681B680C33BB62BB6A53E8003F7B6213
:104FE0007B6A23F4D073FB63FB681B680C33FA6B9A
:104FF0007A633B63396B7A6B41E80023FB62FB6A9F
:10500000002BE5D1FB681B6814337B617B6953E897
:10501000003F3B613B6923F00103BB63FB681B68F6
:105020001433BA6B3A62FB61F9693A6A41E80023CA
:10503000BB61BB69002BE5D1FB68202283F83D20D2
:10504000FB68202283F83E20FB68002283F83C2086
:1050500003230FE0FB681B681A68BB681340BA683B
:105060009A420CBF01230023DBB21A46FB799A4215
:105070009FD0002318464037BD4680BD80B495B010
:1050800000AF78607B681B680C337B637B6B53E8F5
:10509000003F3B633B6B23F49073FB647B681B68AE
:1050A0000C33FA6C3A64FB63F96B3A6C41E8002309
:1050B000BB63BB6B002BE5D17B681B6814333B6281
:1050C0003B6A53E8003FFB61FB6923F00103BB64CB
:1050D0007B681B681433BA6CFA62BB62B96AFA6AFD
:1050E00041E800237B627B6A002BE5D17B681B6B68
:1050F000012B19D17B681B680C33FB60FB6853E8FC
:10510000003FBB60BB6823F010037B647B681B68B7
:105110000C337A6CBA617B617969BA6941E8002322
:105120003B613B69002BE5D17B68202283F83E2060
:105130007B6800221A6300BF5437BD465DF8047BCC
:10514000704780B584B000AF78607B689B6BFB6074
:10515000FB680022DA85FB680022DA84F868FFF732
:1051600009FF00BF1037BD4680BD80B485B000AFD9
:1051700078607B6893F83D30DBB2212B3ED17B68B1
:105180009B68B3F5805F14D17B681B69002B10D13D
:105190007B681B6AFB60FB681B881A467B681B6880
:1051A000C2F308025A607B681B6A9A1C7B681A6209
:1051B00008E07B681B6A591C7A6811621A787B6860
:1051C0001B685A607B68DB8C9BB2013B9BB27A68A0
:1051D0001946D184002B0FD17B681B68DA687B6885
:1051E0001B6822F08002DA607B681B68DA687B68E3
:1051F0001B6842F04002DA60002300E002231846F8
:105200001437BD465DF8047B704780B582B000AFAF
:1052100078607B681B68DA687B681B6822F0400254
:10522000DA607B68202283F83D207868FFF78EFEE5
:10523000002318460837BD4680BD80B58CB000AF4E
:1052400078607B6893F83E30DBB2222B40F0AB8075
:105250007B689B68B3F5805F17D17B681B69002B67
:1052600013D10023FB627B689B6ABB627B681B686F
:105270005B689BB2C3F308039AB2BB6A1A807B686F
:105280009B6A9A1C7B689A6226E07B689B6AFB6239
:105290000023BB627B689B68B3F5805F07D07B68A7
:1052A0009B68002B0AD17B681B69002B06D17B68A9
:1052B0001B685B68DAB2FB6A1A7008E07B681B68DF
:1052C0005B68DBB203F07F03DAB2FB6A1A707B68BB
:1052D0009B6A5A1C7B689A627B68DB8D9BB2013BA0
:1052E0009BB27A681946D185002B5AD17B681B681E
:1052F000DA687B681B6822F02002DA607B681B6832
:10530000DA687B681B6822F48072DA607B681B684D
:105310005A697B681B6822F001025A617B6820226F
:1053200083F83E207B681B6B012B35D17B68002204
:105330001A637B681B680C337B617B6953E8003F11
:105340003B613B6923F010037B627B681B680C3375
:105350007A6A3A62FB61F9693A6A41E80023BB6103
:10536000BB69002BE5D17B681B681B6803F0100349
:10537000102B0AD10023FB607B681B681B68FB6055
:105380007B681B685B68FB60FB687B689B8D1946CC
:105390007868FFF7F9FD02E07868FFF7E1FD002388
:1053A00002E0002300E0022318463037BD4680BDEE
:1053B0002DE9B04FC0B000AFC7F8F400D7F8F43013
:1053C0001B681B6923F44050D7F8F430D968D7F82C
:1053D000F4301A6840EA01031361D7F8F4309A6890
:1053E000D7F8F4301B691A43D7F8F4305B691A43D5
:1053F000D7F8F430DB691343C7F8F830D7F8F43046
:105400001B68DB6823F4164121F00C01D7F8F43057
:105410001A68D7F8F8300B43D360D7F8F4301B681C
:105420005B6923F44070D7F8F4309969D7F8F43009
:105430001A6840EA01035361D7F8F4301A688F4BB9
:105440009A4205D0D7F8F4301A688D4B9A4204D1AD
:10545000FFF7FAF9C7F8FC0003E0FFF7E1F9C7F836
:10546000FC00D7F8F430DB69B3F5004F40F00C8155
:10547000D7F8FC300022C7F8E830C7F8EC20D7E9AD
:105480003A4522462B469118B9655B41FB65D7E941
:105490001623214612EB0108294643EB01094FF080
:1054A00000024FF000034FEAC90343EA58734FEA82
:1054B000C80290469946234618EB0303C7F8E0302C
:1054C0002B4649EB0303C7F8E430D7F8F4305B68A8
:1054D0000022C7F8D830C7F8DC20D7E936120B46CF
:1054E000DB183B65134642EB03037B65D7E91423C6
:1054F000D7E93801FAF7C4FE02460B46614BA3FB1D
:1055000002235B091C01D7F8FC300022C7F8D03019
:10551000C7F8D420D7E9348942464B469118B9647C
:105520005B41FB64D7E91223414612EB010A49466D
:1055300043EB010B4FF000024FF000034FEACB03A7
:1055400043EA5A734FEACA0292469B4643461AEB15
:105550000303C7F8C8304B464BEB0303C7F8CC3006
:10556000D7F8F4305B680022C7F8C030C7F8C42011
:10557000D7E930120B46DB183B64134642EB0303BA
:105580007B64D7E91023D7E93201FAF779FE0246A6
:105590000B4611463B4BA3FB01235B09642202FB34
:1055A00003F3CB1ADB0003F13202364BA3FB0223D9
:1055B0005B095B0003F4F8731C44D7F8FC3000224D
:1055C000C7F8B830C7F8BC20D7E92E8942464B4609
:1055D0009118B9635B41FB63D7E90E23414651182B
:1055E000396349464B417B634FF000024FF00003A3
:1055F000D7E90CAB5946CB00514643EA51735146AB
:10560000CA0010461946034642469B18C7F8B030F8
:105610004B460A4642EB0303C7F8B430D7F8F430E0
:105620005B680022C7F8A830C7F8AC20D7E92A1277
:105630000B46DB18BB62134642EB0303FB62D7E960
:105640000A23D7E92C01FAF71BFE02460B460D4B45
:10565000A3FB02135B09642101FB03F3D31ADB00F4
:105660003233084AA2FB03235B0903F00702D7F891
:10567000F4301B6822449A6005E100BF001001402D
:10568000001401401F85EB51D7F8FC300022C7F809
:10569000A030C7F8A420D7E9288942464B46911884
:1056A00039625B417B62D7E9082341465418494679
:1056B00043EB01054FF000024FF00003EB0043EA1B
:1056C0005473E20014461D464346E318C7F8983069
:1056D0004B4645EB0303C7F89C30D7F8F4305B68C2
:1056E0000022C7F89030C7F894204FF000024FF026
:1056F0000003D7E9244529468B00214643EA9173EC
:1057000021468A00D7E92601FAF7BAFD02460B4680
:10571000604BA3FB02235B091C01D7F8FC3000227D
:10572000C7F88830C7F88C20D7E9228942464B4613
:105730009118B9615B41FB61D7E9062341465118D5
:10574000396149464B417B614FF000024FF0000345
:10575000D7E904AB5946CB00514643EA5173514651
:10576000CA0010461946034642469B18C7F88030C7
:105770004B460A4642EB0303C7F88430D7F8F430AF
:105780005B680022BB67FA674FF000024FF000032E
:10579000D7E91E8949468B00414643EA9173414649
:1057A0008A00D7E92001FAF76BFD02460B46394B18
:1057B000A3FB02135B09642101FB03F3D31A1B0152
:1057C0003233344AA2FB03235B0903F0F0031C4489
:1057D000D7F8FC3000223B677A67D7E91C8942463C
:1057E0004B469118B9605B41FB60D7E90223414603
:1057F0005118396049464B417B604FF000024FF031
:105800000003D7E900AB5946CB00514643EA517338
:105810005146CA0010461946034642469B18BB66CD
:105820004B460A4642EB0303FB66D7F8F4305B684D
:1058300000223B667A664FF000024FF00003D7E982
:10584000188949468B00414643EA917341468A00D4
:10585000D7E91A01FAF714FD02460B460D4BA3FBDC
:1058600002135B09642101FB03F3D31A1B013233DA
:10587000084AA2FB03235B0903F00F02D7F8F430B8
:105880001B6822449A6000BF07F58077BD46BDE8DB
:10589000B08F00BF1F85EB51014B1868704700BFE8
:1058A0003800002070B50D4D0D4C641BA41000266F
:1058B000A64209D10B4D0C4C00F09EFC641BA410B9
:1058C0000026A64205D170BD55F8043B9847013625
:1058D000EEE755F8043B98470136F2E7C862000846
:1058E000C8620008C8620008CC62000810B501391F
:1058F0000244904201D1002005E0037811F8014FE5
:10590000A34201D0181B10BD0130F2E70244034648
:10591000934200D1704703F8011BF9E70EB400B5BC
:105920009CB01DAB029006906FF0004109480791B2
:105930000491094953F8042B05910068019302A9C9
:1059400000F068F8029B00221A701CB05DF804EBAE
:1059500003B07047380000200802FFFF2DE9F04730
:105960008E689E4282460C4690461F4638D88A89E9
:1059700012F4906F32D025680969A5EB01096569B9
:1059800005EB450505EBD57501334B446D109D4284
:1059900038BF1D46530531D5294600F063FB064646
:1059A00050B90C23CAF80030A38943F04003A38107
:1059B0004FF0FF30BDE8F08721694A4600F0BEFA9B
:1059C000A38923F4906343F08003A381266165617A
:1059D0004E44A5EB09052660A5603E46BE4200D9AF
:1059E0003E4620683246414600F0B6FAA3689B1B4B
:1059F000A3602368334423600020DBE72A4600F0DD
:105A0000A5FB06460028E1D12169504600F0BEFA08
:105A1000C7E700002DE9F04F98468B891B069DB023
:105A200007460D4614460ED50B6963B9402100F0B8
:105A300019FB2860286120B90C233B604FF0FF3030
:105A4000D1E040236B610023099320238DF8293096
:105A5000CDF80C803023DFF8A8818DF82A304FF084
:105A6000010923469A4613F8012B0AB1252AF9D1D8
:105A7000BAEB040B0BD05B46224629463846FFF7AB
:105A80006DFF013000F0AA80099A5A4409929AF8F1
:105A90000030002B00F0A28000234FF0FF32CDE950
:105AA00005230AF1010A049307938DF853301A93E2
:105AB0005446052214F8011B5148FAF791FB049A49
:105AC000D8B9D00644BF20238DF85330110744BF06
:105AD0002B238DF853309AF800302A2B15D0079AD3
